:1000000000308A0019280000223084008313000881
:10001000031918280130F800F701F70B0D28F80B29
:100020000C284A30F700F70B13281628800B0A28F3
:1000300008000130A00083161F149F141F159F1184
:1000400083131F3083050912831290010030F800DA
:1000500092000030831692001F149F141F159F11E9
:1000600083121F10F03097059D050030831686001F
:10007000831286010130A00020080A3C031C63287B
:1000800020080139031D4D28061486100230A100F6
:10009000FA30A2000420A10B482820080139013CB5
:1000A000031D5B28861406100230A100FA30A2005E
:1000B0000420A10B562820080A3C031861280130AF
:0A00C000A000A00A3C283A286300C3
:02400E003A3F37
:00000001FF
;PIC16F877
;CRC=465C  CREATED="23-Kas-22 15:31"
